:020000040000FA
:08000000803102288731E82F4E
:10000A000130F0000030F10079088E31AF268031DE
:10001A000030F500F600F7018E316A26803104308F
:10002A00080022008C018D018E013F3021008C00D6
:10003A0070308D00FF308E00CF3023008E008D018E
:10004A0017308C0024008D018C01210095172200A5
:10005A009D01080020000C1121000C11A030890B11
:10006A00342821000C151730890B3928000020008C
:10007A000C194028412847288830890B4228003229
:10008A000314482803100800F201F3018F31D02726
:10009A008031F000730A5228F035890B5128700814
:1000AA00F1007108F2040130F0007008F30708301B
:1000BA007302031C612862284B2872080800F101A8
:1000CA00F10A2000BC186A286B287E283C11FF30F0
:1000DA00F0007008B6008D31AE2580318D31B4251F
:1000EA0080318D31B125803120003B08F000700845
:1000FA00F100710808002000D300D401D40ABC180A
:10010A00872888289C28BC14D401530803198E28F0
:10011A008F289228BA01BA0A96280230FD007D0873
:10012A00BA008D31B72580318E3177268031200093
:10013A0054080800083023009F0090309D002430A6
:10014A009E0067309B009C010030F0000030F100F7
:10015A008E31122680310030F0000030F1008E31ED
:10016A00182680310030F0000030F1008E310C2664
:10017A0080312000CD010800F9007908F700F80164
:10018A007708FA007808FB007A08F800F701770880
:10019A00FA007808FB0000307A05FA000F307B0578
:1001AA00FB0076087A07FA007B0803187B0AFB0033
:1001BA007B08F1007A08F0008131AE218031080015
:1001CA0021000E108E100E1122008E100E110E102C
:1001DA00F6010F308031C12080310F30FC007C08DD
:1001EA00F6000A308031C12080310330FC007C08DF
:1001FA00F6000B308031C1208031F601F60A0C304E
:10020A008031C12080310800F4007008710403199C
:10021A000F29102921297435203E8600870170088C
:10022A00C03F7108C13F7208F30074082C3E860073
:10023A008701730881002E297435203E86008701C4
:10024A00AA30C03F0D30C13F74082C3E860087019A
:10025A00810108002000D0005008013ED100003082
:10026A0003180130D2005108FB00FA017A08D100C4
:10027A007B08D20000305105D1000F305205D20060
:10028A0079085F3E8600870101085107D1005208AC
:10029A000318520AD2005208F1005108F0008131C5
:1002AA00AE21813108008D31AE25813120003C1C00
:1002BA005F2960296D298E3124268131003A03197C
:1002CA00672968296D290F302000D0005008BA002C
:1002DA0020003A08D000D101D035D10D00305007A6
:1002EA0084008830513D8500013F8A00003F0A00A2
:1002FA0081312000D2005208BA000800F301F4014B
:10030A0020008E1989298A298F297308013EF20053
:10031A007208F3000D30F200FC30890B9229F20BBF
:10032A0092290130F2007208F40703307402031CA8
:10033A009F29A029852903307302031CA529A62910
:10034A00AB290130F0000030F100AD29F001F101D4
:10035A00080022000E110030F4008030F500D22986
:10036A0074087005F20075087105F30072087304C9
:10037A00031DC029C129C3298E10C4298E140E1445
:10038A00000022000E107508F3007408F200F3361C
:10039A00F20C7208F4007308F50074087504031D62
:1003AA00D729D829B5290E15080020003C1002309B
:1003BA00FA007A08BB00E9298D31E9258131052A3D
:1003CA008D31EE258131052A2E08FA007A08F900C6
:1003DA000430203E86008701413F8A00403F0A00E0
:1003EA008131FB00FC017C08003A0319FD29E5294B
:1003FA007B08023A0319E129013A0319E129E5299F
:10040A000800F9000A30F0000030F10079082000F5
:10041A00D000D1015008F2005108F30084310C24B5
:10042A00823170082000D2007108D3000A30F0002F
:10043A000030F1007908D400D5015408F2005508BB
:10044A00F30085311225823170082000D60003306E
:10045A00D635FF3E031D2D2A5635520708002000C7
:10046A00BC15442A8D31E9258231622A8D31C6258F
:10047A0082310330622A8D31EE258231622A2C08BC
:10048A00FA007A08F90021088A0020080A00823155
:10049A00FB00FC017C08003A0319542A402A7B0815
:1004AA00013A0319402A033A0319372A013A031970
:1004BA00372A073A03193B2A402A08002000D800A5
:1004CA0020005808833100238231003A03196E2A2A
:1004DA006F2A652A0530F5000030F60056302000F4
:1004EA00D7005708F7008E316A2682310130F000B2
:1004FA000030F10055308E31AF2682310030F500E0
:10050A00F600F7018E31842682318E310726823138
:10051A00803164208231013A0319942A952A8D2A5E
:10052A0008007008710403199B2A9C2AC52AF50140
:10053A00F50AA82A0130F035F10D890BA02A0130FD
:10054A00F4007408F507F11FAB2AAC2A9F2A710838
:10055A007302031DB22A70087202031CB52AB62A56
:10056A00BA2A7008F2027108F33B0130F136F00C36
:10057A00890BBB2A0130F502031DC42AC52AAC2AFD
:10058A007308F1007208F00008002000D700D801B3
:10059A0020005708833100238231003A0319D62AF2
:1005AA00D72ACD2A1430F5000F30F6005830200033
:1005BA00D6005608F7008E316A2682310130F000E3
:1005CA000030F10055308E31AF2682310030F5000F
:1005DA00F600F7018E31842682318E310726823168
:1005EA00803164208231013A0319FC2AFD2AF52A56
:1005FA00200058080800F100F201F20A20003C1914
:10060A00072B082B382B7108F0007008B600BC10B5
:10061A003C153C100E30F0007008BA00F430B400FB
:10062A000130B500BC15AA30A0000D30A100AC0104
:10063A00AA30A2000D30A300AD01AA30A4000D30EB
:10064A00A500AE01AA30A6000D30A700AF01AC305C
:10065A00A8000D30A900B0018D31AE2583318E314D
:10066A0091268331F20172080800F501F60170083B
:10067A0071040319412B422B712BF701F70A4E2BF8
:10068A000130F035F10D890B462B0130F400740866
:10069A00F707F11F512B522B452B0130F535F60D7B
:1006AA00890B532B71087302031D5D2B70087202AC
:1006BA00031C602B612B662B7008F2027108F33B56
:1006CA0075140130F136F00C890B672B0130F702F3
:1006DA00031D702B712B522B7608F1007508F00060
:1006EA0008008D31C3258331FA00200037088600BF
:1006FA0087017A0881000130FA007A08B7070130C9
:10070A00B8020030B93B3808390403198D2B8E2BF7
:10071A00932B8D31D12583310530BB2BBC159D2BF5
:10072A008D31FD258331BB2B8D31F8258331BB2BD0
:10073A002C08FA007A08F90021088A0020080A0021
:10074A008331FB00FC017C08003A0319AD2B992B7D
:10075A007B08013A0319992B033A0319952B013A9D
:10076A000319952B073A0319992B992B0800F900BD
:10077A0080312F2083310318C32BC42BC62B0310BF
:10078A000B2CCC308F31E827833144308F31E82766
:10079A008331803149208331003A0319D52BD62B76
:1007AA00CE2B80312F2083310318DC2BDD2BDE2B5F
:1007BA00C42BCC308F31E8278331BE308F31E82704
:1007CA008331803149208331F400F50179088600AC
:1007DA0087017408C03F7508C13F79088600870100
:1007EA00803149208331F400F5017408F500F401E1
:1007FA00403F7407F700413F753DF80079088600CD
:10080A0087017708C03F7808C13F03140800F60142
:10081A00F31F102C112C182CF209F309F20A0319F0
:10082A00F30AF601F60AF11F1B2C1C2C212CF009E5
:10083A00F109F00A0319F10A700871040319262C48
:10084A00272C502CF501F50A332C0130F035F10D27
:10085A00890B2B2C0130F4007408F507F11F362C94
:10086A00372C2A2C71087302031D3D2C7008720262
:10087A00031C402C412C452C7008F2027108F33BF2
:10088A000130F136F00C890B462C0130F502031DBC
:10089A004F2C502C372C76080319542C552C5A2CD3
:1008AA00F209F309F20A0319F30A7308F10072084C
:1008BA00F00008008E3124268431003A0319662C90
:1008CA00672C972C742C8D31DF258431B32C8D3114
:1008DA00E4258431B32C8D31EE258431B32C2000EC
:1008EA002F08FA007A08F9000630203E86008701B0
:1008FA00413F8A00403F0A008431FB00FC017C082A
:10090A00003A0319892C702C7B08013A0319702CC0
:10091A00033A0319682C013A03196C2C073A031994
:10092A00702C702C20003C101730203E8600870166
:10093A00403F84008501810A00088D31D525843124
:10094A0001302000B8020030B93B38083904031DD1
:10095A00AF2CB02CB22C0630B32C03300800200088
:10096A008E19B82CB92C0E2D81318321843170084F
:10097A0071040319C12CC22C0E2D2000C801C80A0B
:10098A004908DC005C08FC00013086319C26843171
:10099A002000DD005D08C9004A08DC005C08FC0094
:1009AA00023086319C2684312000DD005D08CA00B1
:1009BA0081318321843170087104031DE52CE62CF2
:1009CA00DD2C200049088231062284312000DC0017
:1009DA005C08C9004A088231062284312000DC0002
:1009EA005C08CA00D501D50A4A08DC005C08D600B2
:1009FA00683082316322843102302000DC005C08D6
:100A0A00D5004908DD005D08D600683082316322CE
:100A1A0084318531712584310800F601F11F162DC4
:100A2A00172D1E2DF009F109F00A0319F10AF60132
:100A3A00F60AF31F212D222D2B2DF209F309F20AB2
:100A4A000319F30A0130F4007408F606F701F801F5
:100A5A00700871040319322D332D622DF501F50A40
:100A6A003F2D0130F035F10D890B372D0130F4009F
:100A7A007408F507F11F422D432D362D0130F73545
:100A8A00F80D890B442D71087302031D4E2D700851
:100A9A007202031C512D522D572D7008F202710853
:100AAA00F33B77140130F136F00C890B582D0130E5
:100ABA00F502031D612D622D432D76080319662D5B
:100ACA00672D6C2DF709F809F70A0319F80A78084F
:100ADA00F1007708F0000800D1302000D900590849
:100AEA00D500D60168308231632285312000D501D4
:100AFA00D50A68308231CA2285312000D9005908C6
:100B0A00CA000230D9005908D50068308231CA2299
:100B1A0085312000DA005A08C9004A088F314A276D
:100B2A0085312000D9005908CA0049088F314A275F
:100B3A0085312000D9005908C9000A30F000003078
:100B4A00F1004908D900DA015908F2005A08F300FD
:100B5A0085311225853170082000DB005B08F90019
:100B6A00003081312F2185310A30F0000030F10048
:100B7A0020004908D900DA015908F2005A08F3009E
:100B8A0084310C24853170082000DB005B08F900F1
:100B9A00013081312F2185310A30F0000030F10017
:100BAA0020004A08D900DA015908F2005A08F3006D
:100BBA0085311225853170082000DB005B08F900B9
:100BCA00023081312F2185310A30F0000030F100E6
:100BDA0020004A08D900DA015908F2005A08F3003D
:100BEA0084310C24853170082000DB005B08F90091
:100BFA00033081312F21853108008E319F268631BD
:100C0A008031E520863123008E018C0130302000AE
:100C1A0098009601970121008E150E168E16200057
:100C2A004108031D192E1A2E352E8431B42486311B
:100C3A00033020003E02E83003193D020318262E35
:100C4A00272E2C2E0130BD070030BE3D142E8F31C9
:100C5A00362786312000BD01BE01C101C10A142E0A
:100C6A004103031D392E3A2E142E4E308331BC23F4
:100C7A008631031C412E422E872E20004E0E0F393C
:100C8A00BF004F0EF039BF044F0E0F39C0000A30B3
:100C9A00F0000030F1004008F3003F08F200833111
:100CAA003A23863170082000DE005E08F900003021
:100CBA0081312F2186310A30F0000030F100200006
:100CCA004008F3003F08F20082319622863170080C
:100CDA002000DE005E08F900013081312F218631C3
:100CEA000A302000DE005E08F900023081312F212F
:100CFA0086310B302000DE005E08F90003308131B6
:100D0A002F218631003020003E020A3003193D02AD
:100D1A000318902E912E922E272E8F313627863148
:100D2A002000BD01BE01C101142E80310228FD0040
:100D3A0081318321863170087104031DA52EA62EE8
:100D4A009D2E352F7C08013ED3005308FC00480332
:100D5A00031DB02EB12EB82E18307C02031CB62EFD
:100D6A00B72EB82EFC0102304806031DBD2EBE2E3A
:100D7A00C52E3C307C02031CC32EC42EC52EFC019A
:100D8A007D1CC82EC92EF92E0A30F0000030F10061
:100D9A007C08D300D4015308F2005408F3008531CB
:100DAA001225863170082000D5005508F900003058
:100DBA0081312F2186310A30F0000030F1007C08A1
:100DCA002000D300D4015308F2005408F300843100
:100DDA000C24863170082000D5005508F90001302E
:100DEA0081312F218631282F0A30F0000030F1009E
:100DFA007C08D300D4015308F2005408F30085316B
:100E0A001225863170082000D5005508F9000230F5
:100E1A0081312F2186310A30F0000030F1007C0840
:100E2A002000D300D4015308F2005408F30084319F
:100E3A000C24863170082000D5005508F9000330CB
:100E4A0081312F21863102302000D4000430D300B2
:100E5A00BA30890B2E2FD30B2E2FD40B2E2F000036
:100E6A0020000E1E392F3A2FA72E7D1C3D2F3E2F14
:100E7A00862F0F30D3005308F900003081312F211B
:100E8A0086310F302000D3005308F9000130813138
:100E9A002F2186318F31892786310A30F0000030C0
:100EAA00F1007C082000D300D4015308F200540852
:100EBA00F30085311225863170082000D5005508C7
:100ECA00F900003081312F2186310A30F0000030DC
:100EDA00F1007C082000D300D4015308F200540822
:100EEA00F30084310C24863170082000D50055089F
:100EFA00F900013081312F2186318F3189278631DE
:100F0A00CB2F0F30D3005308F900023081312F2143
:100F1A0086310F302000D3005308F90003308131A5
:100F2A002F2186318F31892786310A30F00000302F
:100F3A00F1007C082000D300D4015308F2005408C1
:100F4A00F30085311225863170082000D500550836
:100F5A00F900023081312F2186310A30F000003049
:100F6A00F1007C082000D300D4015308F200540891
:100F7A00F30084310C24863170082000D50055080E
:100F8A00F900033081312F218631822F20008E19FA
:100F9A00CF2FD02F352F81318321863170087104EC
:100FAA000319D82FD92F352F20004808013ED30026
:100FBA005308C80003304806031DE42FE52FE62F27
:100FCA00C8017C0808005E3084008E3085005F30DE
:100FDA008600003087000C308E3136268731EF01CB
:100FEA00203084000030850030308E313026873141
:100FFA0020008631022EDA340D344B340E34433459
:10100A000E345F340434763403343C340E343434CE
:10101A000234DF340D34E4340D34E9340D34EE3463
:10102A000D34F3340D34F8340D34FD340D340234F8
:06103A000E34DA3401342B
:101B5400013008000530080020009111080024001D
:101B640095120800210091110800240016140800A1
:101B74002400961408002400161508002400961565
:101B840008002400110808002000911508001630F0
:101B94002100970008002400961616160800240059
:101BA400961216160800F000700824009100080030
:101BB4002000BC10BB010E3008008D31BA258D31D8
:101BC400013008008D31BA258D31023008008D3185
:101BD400BA258D31013008008D31BD258D3100309D
:101BE40008008D31D1258D31053008008D31CD258A
:101BF4008D310A3008008D31CD258D310930080032
:101C04002000BC10BB010E30080000308031802061
:101C14008E31080071082100A1007008A00008009E
:101C240071082000EE007008ED0008007108200023
:101C3400EC007008EB0008006A30210099002200D3
:101C4400960108002400160E890C890C013908003D
:101C54002000911D2E2E2F2E2A2E080064008001B4
:101C64000131890B312E0034FE0012001E00FE0BE0
:101C7400372E003420003C108D31C0258E310430C5
:101C8400080020003C1436358D31D5258E310330C3
:101C9400080020003C140314360D8D31D5258E31F7
:101CA4000530080080302400940008309500960127
:101CB40009309200951208007E3430346D34793442
:101CC40033345B345F3470347F347B3463344E3468
:101CD4007608F1007508F0007708F8007808F2003B
:101CE4000030813109218E3108007E2E8E312A2662
:101CF4008E31813158218E312000BC18822E832EE2
:101D0400782E08007608F1007508F0007708F800CE
:101D14007808F2000230813109218E310800240054
:101D2400951A952E962E9E2E80309400083095009C
:101D3400960109309200951608008E3154268E3192
:101D4400803116208E318E311E268E318D31C9257B
:101D54008E3180319F208E310800F3002000BC1D9D
:101D6400B42EB52EBE2E7308F2007208B7007108A7
:101D7400B9007008B800BC1108000230F00000304F
:101D8400F10079088E31AF268E310030F500F6006F
:101D9400F7018E316A268E31043008000130F000DC
:101DA4000030F10079088E31AF268E310030F50015
:101DB400F600F7018E316A268E31043008000130B6
:101DC400F0000030F10079088E31AF268E310030FA
:101DD400F500F600F7018E316A268E3102300800D4
:101DE4000230F0000030F10079088E31AF268E31D8
:101DF4000030F500F600F7018E316A268E3102308C
:101E040008000230F0000030F10079088E31AF266E
:101E14008F310030F500F600F7018E316A268F31DC
:101E2400043008000130F0000030F10079088E31F0
:101E3400AF268F310030F500F600F7018E316A26A7
:101E44008F31023008000230F0000030F1007908D0
:101E54008E31AF268F310030F500F600F7018E3158
:101E64006A268F3102300800FD010F30FC007C0827
:101E7400F9007D0881312F218F310130FC007C086D
:101E8400FD0704307D02031C482F492F372F08001B
:101E9400F7000F307705F4000A30F5007508F000FC
:101EA4007708F6000430F636890B552F76088F3103
:101EB4005E278F3174070800F300F201731C632F4F
:101EC400642F682F7008F1007108F2070310F00DF9
:101ED4000310F30C7308031D702F712F602F720809
:101EE4000800F00020000C1121000C1100327018C1
:101EF4007C2F7F2F20000C15812F20000C111A300D
:101F0400890B822F003221000C15003208002000BA
:101F1400960197011814F43017022430031916029D
:101F24000318952F962F9E2F8E1D992F9A2F9E2F33
:101F34000E1A9D2F9E2F8D2F1810080079088600E9
:101F44008701403FF000413FF1007908023E8600DE
:101F5400870101088E31AF268F310030F500F6007D
:101F6400F7018E316A268F31023008007908860025
:101F74008701403FF000413FF1007908023E8600AE
:101F8400870101088E31AF268F310030F500F6004D
:101F9400F7018E316A268F310230080020000C11BF
:101FA40021000C11003221000C1500320032000017
:101FB40020006F100C1DDF2F6F142130890BE02FD0
:101FC4000000003020006F1801300800F200F30117
:101FD4007208F100730AEF2FF136890BEE2F7108A6
:101FE4008F3173278F310130F1007108F307083006
:0C1FF4007302031CFE2FFF2FEA2F0800D1
:020000040001F9
:04000E00E409FF3FC3
:00000001FF
